{
  "contractName": "UserData",
  "abi": [
    {
      "inputs": [],
      "payable": false,
      "stateMutability": "nonpayable",
      "type": "constructor"
    },
    {
      "anonymous": false,
      "inputs": [
        {
          "indexed": false,
          "internalType": "string",
          "name": "irla",
          "type": "string"
        },
        {
          "indexed": false,
          "internalType": "string",
          "name": "emailid",
          "type": "string"
        }
      ],
      "name": "EmailUpdated",
      "type": "event"
    },
    {
      "anonymous": false,
      "inputs": [
        {
          "indexed": false,
          "internalType": "string",
          "name": "irla",
          "type": "string"
        },
        {
          "indexed": false,
          "internalType": "string",
          "name": "mobile",
          "type": "string"
        }
      ],
      "name": "MobileUpdated",
      "type": "event"
    },
    {
      "anonymous": false,
      "inputs": [
        {
          "indexed": false,
          "internalType": "string",
          "name": "name",
          "type": "string"
        },
        {
          "indexed": false,
          "internalType": "string",
          "name": "irla",
          "type": "string"
        },
        {
          "indexed": false,
          "internalType": "string",
          "name": "ipfshash",
          "type": "string"
        },
        {
          "indexed": false,
          "internalType": "string",
          "name": "mobile",
          "type": "string"
        },
        {
          "indexed": false,
          "internalType": "string",
          "name": "emailid",
          "type": "string"
        }
      ],
      "name": "UserAdded",
      "type": "event"
    },
    {
      "constant": true,
      "inputs": [],
      "name": "totalUserinfo",
      "outputs": [
        {
          "internalType": "uint256",
          "name": "",
          "type": "uint256"
        }
      ],
      "payable": false,
      "stateMutability": "view",
      "type": "function"
    },
    {
      "constant": true,
      "inputs": [
        {
          "internalType": "uint256",
          "name": "",
          "type": "uint256"
        }
      ],
      "name": "userinfos",
      "outputs": [
        {
          "internalType": "string",
          "name": "name",
          "type": "string"
        },
        {
          "internalType": "string",
          "name": "irla",
          "type": "string"
        },
        {
          "internalType": "string",
          "name": "ipfshash",
          "type": "string"
        },
        {
          "internalType": "string",
          "name": "mobile",
          "type": "string"
        },
        {
          "internalType": "string",
          "name": "emailid",
          "type": "string"
        }
      ],
      "payable": false,
      "stateMutability": "view",
      "type": "function"
    },
    {
      "constant": false,
      "inputs": [
        {
          "internalType": "string",
          "name": "name",
          "type": "string"
        },
        {
          "internalType": "string",
          "name": "irla",
          "type": "string"
        },
        {
          "internalType": "string",
          "name": "ipfshash",
          "type": "string"
        },
        {
          "internalType": "string",
          "name": "mobile",
          "type": "string"
        },
        {
          "internalType": "string",
          "name": "emailid",
          "type": "string"
        }
      ],
      "name": "insertData",
      "outputs": [
        {
          "internalType": "uint256",
          "name": "_totalUserinfo",
          "type": "uint256"
        }
      ],
      "payable": false,
      "stateMutability": "nonpayable",
      "type": "function"
    },
    {
      "constant": true,
      "inputs": [
        {
          "internalType": "string",
          "name": "irla",
          "type": "string"
        }
      ],
      "name": "getData",
      "outputs": [
        {
          "internalType": "string",
          "name": "name",
          "type": "string"
        },
        {
          "internalType": "string",
          "name": "ipfshash",
          "type": "string"
        },
        {
          "internalType": "string",
          "name": "mobile",
          "type": "string"
        },
        {
          "internalType": "string",
          "name": "emailid",
          "type": "string"
        }
      ],
      "payable": false,
      "stateMutability": "view",
      "type": "function"
    },
    {
      "constant": false,
      "inputs": [
        {
          "internalType": "string",
          "name": "irla",
          "type": "string"
        },
        {
          "internalType": "string",
          "name": "newMobile",
          "type": "string"
        }
      ],
      "name": "updateMobile",
      "outputs": [
        {
          "internalType": "bool",
          "name": "success",
          "type": "bool"
        }
      ],
      "payable": false,
      "stateMutability": "nonpayable",
      "type": "function"
    },
    {
      "constant": false,
      "inputs": [
        {
          "internalType": "string",
          "name": "irla",
          "type": "string"
        },
        {
          "internalType": "string",
          "name": "newEmail",
          "type": "string"
        }
      ],
      "name": "updateEmail",
      "outputs": [
        {
          "internalType": "bool",
          "name": "success",
          "type": "bool"
        }
      ],
      "payable": false,
      "stateMutability": "nonpayable",
      "type": "function"
    }
  ],
  "bytecode": "0x608060405234801561001057600080fd5b506000600181905550611dab806100286000396000f3fe608060405234801561001057600080fd5b50600436106100625760003560e01c806327897557146100675780635adf823f146101d15780638cbe7b821461033b578063ae55c88814610666578063ee93183b146108de578063fd0c0f8a146108fc575b600080fd5b6101b76004803603604081101561007d57600080fd5b810190808035906020019064010000000081111561009a57600080fd5b8201836020820111156100ac57600080fd5b803590602001918460018302840111640100000000831117156100ce57600080fd5b91908080601f016020809104026020016040519081016040528093929190818152602001838380828437600081840152601f19601f8201169050808301925050505050505091929192908035906020019064010000000081111561013157600080fd5b82018360208201111561014357600080fd5b8035906020019184600183028401116401000000008311171561016557600080fd5b91908080601f016020809104026020016040519081016040528093929190818152602001838380828437600081840152601f19601f820116905080830192505050505050509192919290505050610b53565b604051808215151515815260200191505060405180910390f35b610321600480360360408110156101e757600080fd5b810190808035906020019064010000000081111561020457600080fd5b82018360208201111561021657600080fd5b8035906020019184600183028401116401000000008311171561023857600080fd5b91908080601f016020809104026020016040519081016040528093929190818152602001838380828437600081840152601f19601f8201169050808301925050505050505091929192908035906020019064010000000081111561029b57600080fd5b8201836020820111156102ad57600080fd5b803590602001918460018302840111640100000000831117156102cf57600080fd5b91908080601f016020809104026020016040519081016040528093929190818152602001838380828437600081840152601f19601f820116905080830192505050505050509192919290505050610d89565b604051808215151515815260200191505060405180910390f35b610650600480360360a081101561035157600080fd5b810190808035906020019064010000000081111561036e57600080fd5b82018360208201111561038057600080fd5b803590602001918460018302840111640100000000831117156103a257600080fd5b91908080601f016020809104026020016040519081016040528093929190818152602001838380828437600081840152601f19601f8201169050808301925050505050505091929192908035906020019064010000000081111561040557600080fd5b82018360208201111561041757600080fd5b8035906020019184600183028401116401000000008311171561043957600080fd5b91908080601f016020809104026020016040519081016040528093929190818152602001838380828437600081840152601f19601f8201169050808301925050505050505091929192908035906020019064010000000081111561049c57600080fd5b8201836020820111156104ae57600080fd5b803590602001918460018302840111640100000000831117156104d057600080fd5b91908080601f016020809104026020016040519081016040528093929190818152602001838380828437600081840152601f19601f8201169050808301925050505050505091929192908035906020019064010000000081111561053357600080fd5b82018360208201111561054557600080fd5b8035906020019184600183028401116401000000008311171561056757600080fd5b91908080601f016020809104026020016040519081016040528093929190818152602001838380828437600081840152601f19601f820116905080830192505050505050509192919290803590602001906401000000008111156105ca57600080fd5b8201836020820111156105dc57600080fd5b803590602001918460018302840111640100000000831117156105fe57600080fd5b91908080601f016020809104026020016040519081016040528093929190818152602001838380828437600081840152601f19601f820116905080830192505050505050509192919290505050610fbf565b6040518082815260200191505060405180910390f35b61071f6004803603602081101561067c57600080fd5b810190808035906020019064010000000081111561069957600080fd5b8201836020820111156106ab57600080fd5b803590602001918460018302840111640100000000831117156106cd57600080fd5b91908080601f016020809104026020016040519081016040528093929190818152602001838380828437600081840152601f19601f82011690508083019250505050505050919291929050505061136a565b6040518080602001806020018060200180602001858103855289818151815260200191508051906020019080838360005b8381101561076b578082015181840152602081019050610750565b50505050905090810190601f1680156107985780820380516001836020036101000a031916815260200191505b50858103845288818151815260200191508051906020019080838360005b838110156107d15780820151818401526020810190506107b6565b50505050905090810190601f1680156107fe5780820380516001836020036101000a031916815260200191505b50858103835287818151815260200191508051906020019080838360005b8381101561083757808201518184015260208101905061081c565b50505050905090810190601f1680156108645780820380516001836020036101000a031916815260200191505b50858103825286818151815260200191508051906020019080838360005b8381101561089d578082015181840152602081019050610882565b50505050905090810190601f1680156108ca5780820380516001836020036101000a031916815260200191505b509850505050505050505060405180910390f35b6108e66117be565b6040518082815260200191505060405180910390f35b6109286004803603602081101561091257600080fd5b81019080803590602001909291905050506117c4565b60405180806020018060200180602001806020018060200186810386528b818151815260200191508051906020019080838360005b8381101561097857808201518184015260208101905061095d565b50505050905090810190601f1680156109a55780820380516001836020036101000a031916815260200191505b5086810385528a818151815260200191508051906020019080838360005b838110156109de5780820151818401526020810190506109c3565b50505050905090810190601f168015610a0b5780820380516001836020036101000a031916815260200191505b50868103845289818151815260200191508051906020019080838360005b83811015610a44578082015181840152602081019050610a29565b50505050905090810190601f168015610a715780820380516001836020036101000a031916815260200191505b50868103835288818151815260200191508051906020019080838360005b83811015610aaa578082015181840152602081019050610a8f565b50505050905090810190601f168015610ad75780820380516001836020036101000a031916815260200191505b50868103825287818151815260200191508051906020019080838360005b83811015610b10578082015181840152602081019050610af5565b50505050905090810190601f168015610b3d5780820380516001836020036101000a031916815260200191505b509a505050505050505050505060405180910390f35b600080600090505b600154811015610d7d57610c2560008281548110610b7557fe5b90600052602060002090600502016001018054600181600116156101000203166002900480601f016020809104026020016040519081016040528092919081815260200182805460018160011615610100020316600290048015610c1a5780601f10610bef57610100808354040283529160200191610c1a565b820191906000526020600020905b815481529060010190602001808311610bfd57829003601f168201915b505050505085611aff565b15610d70578260008281548110610c3857fe5b90600052602060002090600502016004019080519060200190610c5c929190611c22565b507f0a3e2a4183c56e51d55b3002e9e2f52f9f52a209d9efe521a4917ff02d4a93488484604051808060200180602001838103835285818151815260200191508051906020019080838360005b83811015610cc4578082015181840152602081019050610ca9565b50505050905090810190601f168015610cf15780820380516001836020036101000a031916815260200191505b50838103825284818151815260200191508051906020019080838360005b83811015610d2a578082015181840152602081019050610d0f565b50505050905090810190601f168015610d575780820380516001836020036101000a031916815260200191505b5094505050505060405180910390a16001915050610d83565b8080600101915050610b5b565b50600090505b92915050565b600080600090505b600154811015610fb357610e5b60008281548110610dab57fe5b90600052602060002090600502016001018054600181600116156101000203166002900480601f016020809104026020016040519081016040528092919081815260200182805460018160011615610100020316600290048015610e505780601f10610e2557610100808354040283529160200191610e50565b820191906000526020600020905b815481529060010190602001808311610e3357829003601f168201915b505050505085611aff565b15610fa6578260008281548110610e6e57fe5b90600052602060002090600502016003019080519060200190610e92929190611c22565b507f18cf67de23ddc4fb6695b168fed93fa0917e7e551d6593af251127483cbd4f268484604051808060200180602001838103835285818151815260200191508051906020019080838360005b83811015610efa578082015181840152602081019050610edf565b50505050905090810190601f168015610f275780820380516001836020036101000a031916815260200191505b50838103825284818151815260200191508051906020019080838360005b83811015610f60578082015181840152602081019050610f45565b50505050905090810190601f168015610f8d5780820380516001836020036101000a031916815260200191505b5094505050505060405180910390a16001915050610fb9565b8080600101915050610d91565b50600090505b92915050565b600080845111610fce57600080fd5b6000865111610fdc57600080fd5b6000855111610fea57600080fd5b6000835111610ff857600080fd5b600082511161100657600080fd5b61100e611ca2565b6040518060a00160405280888152602001878152602001868152602001858152602001848152509050600081908060018154018082558091505090600182039060005260206000209060050201600090919290919091506000820151816000019080519060200190611081929190611cd1565b50602082015181600101908051906020019061109e929190611cd1565b5060408201518160020190805190602001906110bb929190611cd1565b5060608201518160030190805190602001906110d8929190611cd1565b5060808201518160040190805190602001906110f5929190611cd1565b505050506001600081548092919060010191905055507f68f35ab6b228cc7955a3331e13e46b06b6f0d80ed433dd7c278cfe29fe19dc2b878787878760405180806020018060200180602001806020018060200186810386528b818151815260200191508051906020019080838360005b83811015611181578082015181840152602081019050611166565b50505050905090810190601f1680156111ae5780820380516001836020036101000a031916815260200191505b5086810385528a818151815260200191508051906020019080838360005b838110156111e75780820151818401526020810190506111cc565b50505050905090810190601f1680156112145780820380516001836020036101000a031916815260200191505b50868103845289818151815260200191508051906020019080838360005b8381101561124d578082015181840152602081019050611232565b50505050905090810190601f16801561127a5780820380516001836020036101000a031916815260200191505b50868103835288818151815260200191508051906020019080838360005b838110156112b3578082015181840152602081019050611298565b50505050905090810190601f1680156112e05780820380516001836020036101000a031916815260200191505b50868103825287818151815260200191508051906020019080838360005b838110156113195780820151818401526020810190506112fe565b50505050905090810190601f1680156113465780820380516001836020036101000a031916815260200191505b509a505050505050505050505060405180910390a160015491505095945050505050565b60608060608060008090505b600154811015611748576114406000828154811061139057fe5b90600052602060002090600502016001018054600181600116156101000203166002900480601f0160208091040260200160405190810160405280929190818152602001828054600181600116156101000203166002900480156114355780601f1061140a57610100808354040283529160200191611435565b820191906000526020600020905b81548152906001019060200180831161141857829003601f168201915b505050505087611aff565b1561173b576000818154811061145257fe5b90600052602060002090600502016000016000828154811061147057fe5b90600052602060002090600502016002016000838154811061148e57fe5b9060005260206000209060050201600301600084815481106114ac57fe5b9060005260206000209060050201600401838054600181600116156101000203166002900480601f0160208091040260200160405190810160405280929190818152602001828054600181600116156101000203166002900480156115525780601f1061152757610100808354040283529160200191611552565b820191906000526020600020905b81548152906001019060200180831161153557829003601f168201915b50505050509350828054600181600116156101000203166002900480601f0160208091040260200160405190810160405280929190818152602001828054600181600116156101000203166002900480156115ee5780601f106115c3576101008083540402835291602001916115ee565b820191906000526020600020905b8154815290600101906020018083116115d157829003601f168201915b50505050509250818054600181600116156101000203166002900480601f01602080910402602001604051908101604052809291908181526020018280546001816001161561010002031660029004801561168a5780601f1061165f5761010080835404028352916020019161168a565b820191906000526020600020905b81548152906001019060200180831161166d57829003601f168201915b50505050509150808054600181600116156101000203166002900480601f0160208091040260200160405190810160405280929190818152602001828054600181600116156101000203166002900480156117265780601f106116fb57610100808354040283529160200191611726565b820191906000526020600020905b81548152906001019060200180831161170957829003601f168201915b505050505090509450945094509450506117b7565b8080600101915050611376565b506040517f08c379a000000000000000000000000000000000000000000000000000000000815260040180806020018281038252600e8152602001807f75736572206e6f7420666f756e6400000000000000000000000000000000000081525060200191505060405180910390fd5b9193509193565b60015481565b600081815481106117d157fe5b9060005260206000209060050201600091509050806000018054600181600116156101000203166002900480601f01602080910402602001604051908101604052809291908181526020018280546001816001161561010002031660029004801561187d5780601f106118525761010080835404028352916020019161187d565b820191906000526020600020905b81548152906001019060200180831161186057829003601f168201915b505050505090806001018054600181600116156101000203166002900480601f01602080910402602001604051908101604052809291908181526020018280546001816001161561010002031660029004801561191b5780601f106118f05761010080835404028352916020019161191b565b820191906000526020600020905b8154815290600101906020018083116118fe57829003601f168201915b505050505090806002018054600181600116156101000203166002900480601f0160208091040260200160405190810160405280929190818152602001828054600181600116156101000203166002900480156119b95780601f1061198e576101008083540402835291602001916119b9565b820191906000526020600020905b81548152906001019060200180831161199c57829003601f168201915b505050505090806003018054600181600116156101000203166002900480601f016020809104026020016040519081016040528092919081815260200182805460018160011615610100020316600290048015611a575780601f10611a2c57610100808354040283529160200191611a57565b820191906000526020600020905b815481529060010190602001808311611a3a57829003601f168201915b505050505090806004018054600181600116156101000203166002900480601f016020809104026020016040519081016040528092919081815260200182805460018160011615610100020316600290048015611af55780601f10611aca57610100808354040283529160200191611af5565b820191906000526020600020905b815481529060010190602001808311611ad857829003601f168201915b5050505050905085565b6000816040516020018080602001828103825283818151815260200191508051906020019080838360005b83811015611b45578082015181840152602081019050611b2a565b50505050905090810190601f168015611b725780820380516001836020036101000a031916815260200191505b509250505060405160208183030381529060405280519060200120836040516020018080602001828103825283818151815260200191508051906020019080838360005b83811015611bd1578082015181840152602081019050611bb6565b50505050905090810190601f168015611bfe5780820380516001836020036101000a031916815260200191505b50925050506040516020818303038152906040528051906020012014905092915050565b828054600181600116156101000203166002900490600052602060002090601f016020900481019282601f10611c6357805160ff1916838001178555611c91565b82800160010185558215611c91579182015b82811115611c90578251825591602001919060010190611c75565b5b509050611c9e9190611d51565b5090565b6040518060a0016040528060608152602001606081526020016060815260200160608152602001606081525090565b828054600181600116156101000203166002900490600052602060002090601f016020900481019282601f10611d1257805160ff1916838001178555611d40565b82800160010185558215611d40579182015b82811115611d3f578251825591602001919060010190611d24565b5b509050611d4d9190611d51565b5090565b611d7391905b80821115611d6f576000816000905550600101611d57565b5090565b9056fea265627a7a72315820da1820bd7484d3239b52cc63deda2ba2f23d1ceaab518e76373e8ff2a6e4101764736f6c63430005100032",
  "source": "// SPDX-License-Identifier: MIT\npragma solidity >=0.4.22 <0.9.0;\n\ncontract UserData{\n    struct userinfo{\n        string name;\n        string irla;\n        string ipfshash;\n        string mobile;\n        string emailid;\n    }\n    \n    userinfo[] public userinfos;\n    uint256 public totalUserinfo;\n    \n    constructor() public{\n       totalUserinfo = 0;\n   }\n   \n   \n   event UserAdded(\n        string name,\n        string irla,\n        string ipfshash,\n        string mobile,\n        string emailid\n       );\n       \n    event MobileUpdated(string irla, string mobile);\n    event EmailUpdated(string irla, string emailid);\n    \n    function insertData(string memory name, string memory irla, string memory ipfshash, string memory mobile, string memory emailid) public returns(uint256 _totalUserinfo){\n        require(bytes(ipfshash).length > 0);\n        require(bytes(name).length > 0);\n        require(bytes(irla).length > 0);\n        require(bytes(mobile).length > 0);\n        require(bytes(emailid).length > 0);\n        \n        userinfo memory newUserInfo = userinfo(name, irla, ipfshash, mobile, emailid);\n        userinfos.push(newUserInfo);\n        totalUserinfo++;\n        //emit event\n        emit UserAdded (name, irla, ipfshash, mobile, emailid);\n        return totalUserinfo;\n        \n    }\n    \n    function getData(string memory irla) public view returns(string memory name, string memory ipfshash, string memory mobile, string memory emailid){\n        for(uint256 i =0; i< totalUserinfo; i++){\n           if(compareStrings(userinfos[i].irla, irla)){\n              //emit event\n              return (userinfos[i].name , userinfos[i].ipfshash , userinfos[i].mobile, userinfos[i].emailid);\n           }\n       }\n       revert('user not found');\n   }\n   \n\n   \n   function updateMobile(string memory irla, string memory newMobile) public returns (bool success){\n       //This has a problem we need loop\n       for(uint256 i =0; i< totalUserinfo; i++){\n            if(compareStrings(userinfos[i].irla, irla)){\n              userinfos[i].mobile = newMobile;\n              emit MobileUpdated(irla, newMobile);\n              return true;\n           }\n       }\n       return false;\n   }\n   \n   \n   function updateEmail(string memory irla, string memory newEmail) public returns (bool success){\n       //This has a problem we need loop\n       for(uint256 i =0; i< totalUserinfo; i++){\n            if(compareStrings(userinfos[i].irla, irla)){\n              userinfos[i].emailid = newEmail;\n              emit EmailUpdated(irla, newEmail);\n              return true;\n           }\n       }\n       return false;\n   }\n   \n      function compareStrings (string memory a, string memory b)  internal pure returns (bool){\n       return (keccak256(abi.encode(a)) == keccak256(abi.encode(b)));\n   }\n}\n",
  "sourcePath": "/home/ubuntu/new/Bsf_webPack_React_June22th/contracts/UserData.sol",
  "compiler": {
    "name": "solc",
    "version": "0.5.16+commit.9c3226ce.Emscripten.clang"
  },
  "schemaVersion": "3.4.1",
  "updatedAt": "2021-06-23T14:57:25.402Z",
  "networkType": "ethereum",
  "devdoc": {
    "methods": {}
  },
  "userdoc": {
    "methods": {}
  }
}